:100000000C947A000C94A2000C94A2000C94A20010
:100010000C94A2000C94A2000C94A2000C94A200D8
:100020000C94A2000C94A2000C94A2000C94A200C8
:100030000C94A2000C94A2000C94A2000C94A200B8
:100040000C9488180C94A2000C94F8180C94D218F4
:100050000C94A2000C94A2000C94A2000C94A20098
:100060000C942A190C94A2007C3C3E5E2B3D3F2F41
:100070005B5D3B2C2A225C001F1C1F1E1F1E1F1FC6
:100080001E1F1E31343A35303A3236004F63742029
:1000900020382032303235000000000024002700D4
:1000A0002A0000000000250028002B0000000008A6
:1000B000000201000003040700000000000000002F
:1000C00000000000230026002900040404040404A6
:1000D00004040202020202020303030303030102F7
:1000E00004081020408001020408102001020408C6
:1000F00010207A1A11241FBECFEFD8E0DEBFCDBF8B
:1001000026E0AEE0B2E001C01D92A132B207E1F7F5
:1001100012E0A0E0B1E0EAEBF9E402C005900D9234
:10012000AE30B107D9F710E0CAE7D0E004C021979C
:10013000FE010E949423C937D107C9F70E94251BED
:100140000C94DB240C940000CF93DF93FC0182819C
:1001500093819093DA058093D90584819581A68156
:10016000B7818093DB059093DC05A093DD05B09308
:10017000DE0580859185A285B3858093DF05909308
:10018000E005A093E105B093E205DF011C96CF01E5
:100190004996C3EED5E02D912993A817B907D9F751
:1001A000818D928D9093F1058093F00587ED95E018
:1001B000DF91CF91089508950895CF92DF92EF9245
:1001C000FF92CF93DF93B091F905A0E08111AB2F9F
:1001D0008091FA0590E0880F991FAC0140545F4F61
:1001E000C090FF05D0900006E0900106F090020656
:1001F00030E020E0FA01C591D491E881B90190E0A6
:1002000080E0EB23EA130AC02F5F3F4F6C157D059A
:100210008E059F0578F36FEF7FEFCB01DF91CF91D4
:10022000FF90EF90DF90CF900895833081F028F415
:10023000813099F08230A9F008958730A9F0883094
:10024000C9F08430B1F4809180008F7D03C080912B
:1002500080008F7780938000089584B58F7784BD68
:10026000089584B58F7DFBCF8091B0008F77809308
:10027000B00008958091B0008F7DF9CF1F93CF9388
:10028000DF93282F30E0F901E455FF4F8491F90105
:10029000E252FF4FD491F901E653FF4FC491CC23B2
:1002A000A9F0162F81110E941501EC2FF0E0EE0F3E
:1002B000FF1FEE55FF4FA591B4918FB7F894EC91C5
:1002C000111108C0D095DE23DC938FBFDF91CF9151
:1002D0001F910895DE2BF8CFCF93DF9390E0FC01C0
:1002E000E252FF4F249186539F4FFC018491882353
:1002F000D1F090E0880F991FFC01E856FF4FA591BF
:10030000B491FC01EE55FF4FC591D491623071F468
:100310009FB7F8943C91822F809583238C93E8813A
:100320002E2B28839FBFDF91CF9108958FB7F8942C
:10033000EC912E2B2C938FBFF6CF3FB7F894809182
:10034000650290916602A0916702B091680226B59D
:10035000A89B05C02F3F19F00196A11DB11D3FBFFD
:10036000BA2FA92F982F8827BC01CD01620F711DCC
:10037000811D911D42E0660F771F881F991F4A95C6
:10038000D1F708958F929F92AF92BF92CF92DF9252
:10039000EF92FF924B015C010E949D016B017C0179
:1003A0000E949D016C197D098E099F09683E73406A
:1003B00081059105A8F321E0821A9108A108B108EE
:1003C00088EEC80E83E0D81EE11CF11C8114910454
:1003D000A104B10429F7FF90EF90DF90CF90BF9078
:1003E000AF909F908F9008952FB7F894609161021D
:1003F0007091620280916302909164022FBF089510
:10040000CF92DF92EF92FF920F931F93CF93DF93E0
:10041000CDB7DEB7C054D1400FB6F894DEBF0FBEE3
:10042000CDBF0E94F4010091FB051091FC052091C5
:10043000FD053091FE056B017C01C01AD10AE20A6C
:10044000F30A97018601003D17402105310590F41C
:1004500080910306C05CDE4F0FB6F894DEBF0FBE7E
:10046000CDBFDF91CF911F910F91FF90EF90DF9063
:10047000CF9008956093FB057093FC058093FD0574
:100480009093FE051092F6051092F5051092F40572
:100490001092F3051092F20562E08091F7050E9438
:1004A0006C0161E070E080E090E00E94C20161E0D8
:1004B0008091F7050E946C0160E08091F7050E9431
:1004C0003E018091F8058551823020F58BE291E163
:1004D0000197F1F762E08091F7050E946C0180912D
:1004E000040690E08230910538F0880F991F880F3C
:1004F000991F05970197F1F7F89480E00E94DD00BD
:100500006F3F7F4F8F4F9F4F61F410920306789497
:1005100080E0A0CF64E170E080E090E00E94C20142
:10052000D9CF81E00E94DD006F3F7F4F8F4F9F4FFB
:1005300061F38E010F5F1F4F6E012FEBC21A2EEF7A
:10054000D20A780180E00E94DD00F70160837183A8
:100550008283938381E00E94DD00F70164837583C9
:1005600086839783F8E0EF0EF11CEC14FD0451F73D
:10057000789430E020E0F801C080D180E280F38000
:100580004481558166817781FFEFCF16DF06EF0644
:10059000FF0631F04F3F8FEF58076807780719F4CF
:1005A00010920306B5CFF90183E0F595E7958A959A
:1005B000E1F7EE50FA4F8081880FC416D506E606A3
:1005C000F70610F180832F5F3F4F085F1F4F2832DF
:1005D000310589F64091F6052091F2058091F305E9
:1005E000280F3327331F8091F405280F311D809188
:1005F000F505820F932F911D99274817190681F64B
:1006000081E08093030626CF8160DCCFAF92BF925A
:10061000CF92DF92EF92FF920F931F93CF93DF93CE
:100620006C017B018B01040F151FEB015E01AE18FD
:10063000BF08C017D10759F06991D601ED91FC911F
:100640000190F081E02DC6010995892B79F7C5014C
:10065000DF91CF911F910F91FF90EF90DF90CF909E
:10066000BF90AF900895FC01538D448D252F30E04D
:10067000842F90E0821B930B541710F0CF960895AF
:1006800001970895FC01918D828D981761F0A28DDC
:10069000AE0FBF2FB11D5D968C91928D9F5F9F73A2
:1006A000928F90E008958FEF9FEF0895FC01918D58
:1006B000828D981731F0828DE80FF11D858D90E0C5
:1006C00008958FEF9FEF0895FC01918D228D892F62
:1006D00090E0805C9F4F821B91098F73992708954A
:1006E00083EE94E00E94640321E0892B09F420E06A
:1006F000822F089580E090E0892B29F00E947003FA
:1007000081110C9400000895FC01A48DA80FB92F4D
:10071000B11DA35ABF4F2C91848D90E001968F7329
:100720009927848FA689B7892C93A089B1898C9148
:10073000837080648C93938D848D981306C0028897
:10074000F389E02D80818F7D80830895EF92FF9261
:100750000F931F93CF93DF93EC0181E0888F9B8DE4
:100760008C8D98131AC0E889F989808185FF15C09E
:100770009FB7F894EE89FF896083E889F9898081C1
:100780008370806480839FBF81E090E0DF91CF9190
:100790001F910F91FF90EF900895F62E0B8D10E0B2
:1007A0000F5F1F4F0F731127E02E8C8D8E110CC021
:1007B0000FB607FCFACFE889F989808185FFF5CF6C
:1007C000CE010E948403F1CFEB8DEC0FFD2FF11DC4
:1007D000E35AFF4FF0829FB7F8940B8FEA89FB89A9
:1007E00080818062CFCFCF93DF93EC01888D882307
:1007F000B9F0AA89BB89E889F9898C9185FD03C084
:10080000808186FD0DC00FB607FCF7CF8C9185FF68
:10081000F2CF808185FFEDCFCE010E948403E9CF26
:10082000DF91CF91089520913602260F3327331F91
:1008300021323105ECF42091B904FC0190E080E014
:10084000243069F082E00895A09136022191AC0134
:100850004A5E5D4FA40FB52FB11D2C9301968617EC
:1008600098F380913602680F6093360280E0089515
:1008700081E008951092B90481E08093B804109249
:10088000930461E082E10E943E0161E083E10E9405
:100890003E01E9EBF0E080818E7F808380818D7F57
:1008A000808388E48093B80085E48093BC00089539
:1008B00010927204109271041092C0041092E2041B
:1008C0000E943A048BED90E090936E0480936D0447
:1008D0008CED90E090936C0480936B040895CF931B
:1008E000DF9391E0909315028823B9F0C091B8008E
:1008F000D091BA008091BC008A7B8093BC0060E0FC
:1009000082E10E943E0160E083E10E943E010E947C
:100910003A04D093BA00C093B800DF91CF91089504
:100920008F929F92AF92BF92CF92DF92EF92FF92FF
:100930000F931F93CF93DF93D091E204D13208F04D
:10094000D7C0182FC091E1040E949D016B017C016A
:100950008091B90481116BC082E08093B904109337
:10096000B8048FEF8093B7041092B604D093B50407
:10097000A1ECB4E0E5E9F4E080E0D81391C0109276
:10098000940480919404CC0FC82BC093940480915C
:100990009304813009F088C0109293040E949D0155
:1009A0006B017C01809194048093BB008091BB0417
:1009B0009091BC04A091BD04B091BE04892B8A2BF8
:1009C0008B2BA1F00E949D010091BB041091BC04EF
:1009D0002091BD043091BE046C197D098E099F09D8
:1009E000061717072807390708F442C08091BC0092
:1009F00083FDD8CF85EC8093BC000E949D016B01E4
:100A00007C018091B904823009F450C08091B70410
:100A10008F3F09F46FC08091B704803209F46CC035
:100A20008091B704803309F469C084E026C08091C6
:100A3000BB049091BC04A091BD04B091BE04892B6D
:100A40008A2B8B2B09F484CF0E949D018090BB04DC
:100A50009090BC04A090BD04B090BE046C197D09B8
:100A60008E099F0986169706A806B90608F070CF6A
:100A70008091BA040E946F0485E01092C004109225
:100A8000E2041092BF04DF91CF911F910F91FF906C
:100A9000EF90DF90CF90BF90AF909F908F90089590
:100AA0009D9191938F5F69CF85EEA5CF8091BB0417
:100AB0009091BC04A091BD04B091BE04892B8A2BF7
:100AC0008B2B09F49ECF0E949D010091BB041091D5
:100AD000BC042091BD043091BE046C197D098E09BF
:100AE0009F09061717072807390708F08ACFC0CFD4
:100AF00081E0C3CF80E0C1CF82E0BFCF83E0BDCF34
:100B00000895E091720480917104E81730F4F0E0E8
:100B1000ED58FB4F808190E008958FEF9FEF08958F
:100B200090917204809171042FEF3FEF981748F471
:100B3000E92FF0E0ED58FB4F208130E09F5F90936C
:100B40007204C90108958091710490917204891B07
:100B5000990B0895CF92DF92EF92FF920F931F931C
:100B6000CF93DF937C01CB018A012091BF04222324
:100B700089F0EB016B01C40ED51ECC15DD0569F0C3
:100B80006991D701ED91FC910190F081E02DC701B1
:100B90000995F3CF642F0E941304C801DF91CF9110
:100BA0001F910F91FF90EF90DF90CF900895CF931A
:100BB000DF931F92CDB7DEB769832091BF04222354
:100BC000F9F02091E204203258F021E030E0FC01FD
:100BD0003383228390E080E00F90DF91CF910895DE
:100BE0008091C004E82FF0E0EF53FB4F9981908390
:100BF0008F5F8093C0048093E20481E090E0ECCFAB
:100C000061E0CE0101960E941304F7CFCF93DF93EA
:100C1000EC018B818823A1F0888191E09093BF043F
:100C20008093E1041092C0041092E20481E00E94DB
:100C3000900491E0811190E0892FDF91CF91089588
:100C40000E94580481E08B83CE010E940606982FF3
:100C50008111E2CFF1CF8FB7F89480910F028FBF4F
:100C6000089561E0FC0184810E943E0180910E02A2
:100C7000811110920E0208958EBD00000DB407FE82
:100C8000FDCF8EB508958FEF0C943C060F931F9304
:100C9000CF93DF93EC010E94F4018B010E94430685
:100CA0008F3F69F00E94F401601B710B6C177D0788
:100CB000A8F380E0DF91CF911F910F91089581E01B
:100CC000F9CF8CBD9DBD0895CF93DF93EC0180914A
:100CD0000E02811109C081E080930E0280918C0583
:100CE00090918D050E94610660E08C81DF91CF912B
:100CF0000C943E018F929F92AF92BF92FF920F93FE
:100D00001F93CF93DF93EC01F62E49015A018E8198
:100D1000882389F08F8198859C012F5F3F4F38870A
:100D20002F838230924018F40E944306F3CFCE0105
:100D30000E9431061E82CE010E9464068CE291E080
:100D40000E9446068F2D80640E943C0608E110E058
:100D5000D501C401002E04C0B695A7959795879537
:100D60000A94D2F70E943C0608501109083F8FEF01
:100D7000180771F785E9FF2021F028E087E8F212D3
:100D80008FEF0E943C0610E00E9443068A8787FF8F
:100D900004C01F3F11F01F5FF7CFDF91CF911F916C
:100DA0000F91FF90BF90AF909F908F900895AF925A
:100DB000BF92CF92DF92EF92FF920F931F93CF9348
:100DC000DF93EC016901C801820F931F81309240CB
:100DD00050F58E81882379F088819981AA81BB8121
:100DE00084179507A607B70731F48F819885C81631
:100DF000D90608F042C0488359836A837B838B8578
:100E0000833039F089E0440F551F661F771F8A959C
:100E1000D1F79A01AB0161E1CE010E947A068823E5
:100E200089F083E08D83CE010E94310680E0DF915E
:100E3000CF911F910F91FF90EF90DF90CF90BF90D7
:100E4000AF9008950E94F4015B010E9443068A87D7
:100E50008F3F69F40E94F4016A197B096D32714079
:100E6000A0F38FE08D83CE010E943106DCCF8E3F50
:100E700089F418861F8281E08E838F8198858C1576
:100E80009D0550F40E9443068F81988501969887AE
:100E90008F83F3CF8DE0E6CF6701E00EF11E0E9455
:100EA0004306F60181936F01EE15FF05C1F78F81AF
:100EB0009885080F191F18870F838985882319F0D3
:100EC00001151240A0F08E81882389F08F819885CA
:100ED0009C012F5F3F4F38872F838230924018F458
:100EE0000E944306F3CFCE010E9431061E8281E0AC
:100EF0009ECFCF92DF92EF92FF920F93CF93DF932B
:100F0000EC01690182E1411551056105710599F016
:100F10008B85833039F089E0440F551F661F771F9A
:100F20008A95D1F79A01AB0168E1CE010E947A0659
:100F3000882319F084E08D832DC08EEF0E943C063B
:100F400076018EEFD81AF70181917F010E943C064D
:100F5000EC14FD04C1F78FEF0E943C068FEF0E9456
:100F60003C060E9443068A878F71853071F4011117
:100F700016C0CE010E94310681E0DF91CF910F9122
:100F8000FF90EF90DF90CF90089581E18D83CE01A7
:100F90000E943106CE010E94310680E0EECF88E546
:100FA00092E00E944606811102C085E1C4CF20E094
:100FB00030E0A9016DE0CE010E947A06882311F08D
:100FC00084E1B9CF0E9443068111FACFD2CF0F93AB
:100FD000409111025091120260911302709114021B
:100FE000411551056105710599F0082F29E632E098
:100FF0008091690490916A040E947907882349F0DE
:101000001092110210921202109213021092140206
:1010100081E00F9108950F93CF93C82F8091100214
:10102000811105C0C1E08C2FCF910F91089540919F
:1010300000015091010160910201709103010C2F98
:1010400029E632E08091690490916A040E94790750
:10105000811102C0C0E0E7CFCC2321F381E00E94E0
:10106000E7078823B9F310921002DDCF8F929F9289
:10107000AF92BF92EF92FF920F931F93CF934B01CA
:101080005C01C42F8091000190910101A0910201A7
:10109000B091030188159905AA05BB0551F181E0BE
:1010A0000E940B0881110BC080E0CF911F910F911E
:1010B000FF90EF90BF90AF909F908F90089589E63A
:1010C000E82E82E0F82E00E012E030E020E0B501EA
:1010D000A4018091690490916A040E94D706882334
:1010E00019F38092000190920101A0920201B09246
:1010F0000301409110024C2B4093100281E0D5CFA8
:101100008F929F92AF92BF92CF92DF92EF92FF9217
:10111000CF932EE835E030936A0420936904882346
:1011200009F46DC040E060E070E0CB010E94360839
:1011300081110BC080E0CF91FF90EF90DF90CF90B6
:10114000BF90AF909F908F900895809127048F77E4
:1011500089F78091330490913404A0913504B091C3
:10116000360484369105A105B10520F3C0902F0403
:10117000D0903004E0903104F0903204C114D104D6
:10118000E104F104B9F240E0C701B6010E9436085B
:10119000882381F2809174029091750281159240AA
:1011A00049F6A0917902AA2329F260917702709101
:1011B00078026115710509F4BDCF209176022223D2
:1011C00009F4B8CFA093AC0520939E0590E080E091
:1011D00030E0E1E0F0E0C82FAF01082E02C0440F7C
:1011E000551F0A94E2F72417350769F041E0480FCC
:1011F00001968930910579F74093A7059BCFC12CC3
:10120000D12C7601C0CF8093A70520917F02309129
:10121000800250E040E02115310541F420918D021B
:1012200030918E0240918F025091900220939F0541
:101230003093A0054093A1055093A20546015701A4
:10124000860E971EA11CB11C8092AD059092AE0532
:10125000A092AF05B092B005E0917A02F0917B02C6
:10126000F093B305E093B205B0E00E942022DC01C8
:10127000CB01880D991DAA1DBB1D8093B4059093C9
:10128000B505A093B605B093B70525E0EE0FFF1F97
:101290002A95E1F7E150FE4FEF2FFF27E6958E0FDD
:1012A0009F1FA11DB11D8093A8059093A905A09330
:1012B000AA05B093AB0580907C0290907D02B12C82
:1012C000A12C8114910441F48090890290908A02AB
:1012D000A0908B02B0908C02C81AD90AEA0AFB0AC5
:1012E000C80CD91CEA1CFB1C04C0F694E794D794E4
:1012F000C794CA95D2F7C092A305D092A405E092F4
:10130000A505F092A60585EFC8168FE0D806E10482
:10131000F10428F48CE08093B10581E00CCF80E1EA
:1013200025EFC2162FEFD206E104F104A0F380915D
:10133000950290919602A0919702B09198028093A5
:10134000B4059093B505A093B605B093B70580E2B8
:10135000E2CF4F925F926F927F928F929F92AF9265
:10136000BF92CF92DF92EF92FF920F931F93CF9392
:10137000DF93EC01423051056105710590F480E086
:10138000DF91CF911F910F91FF90EF90DF90CF9061
:10139000BF90AF909F908F907F906F905F904F9095
:1013A000089589859A85AB85BC850196A11DB11DDF
:1013B00084179507A607B70710F3CB88DC88ED885C
:1013C000FE888F89803109F042C0BB27A72F962F56
:1013D000852F480159012A013B01C80ED91EEA1E7A
:1013E000FB1E8091000190910101A0910201B0913A
:1013F0000301C816D906EA06FB0699F58F898031E4
:10140000C1F5B301A201552766277727440F551F61
:1014100047595D4FFA01918280828091100281606C
:10142000809310028A89823080F08D819E81AF8105
:10143000B8858C0D9D1DAE1DBF1D8093110290932C
:101440001202A0931302B093140281E099CFDB0142
:10145000CA01E7E0B695A79597958795EA95D1F7E4
:10146000B8CF40E0C701B6010E9436088111C6CF4F
:1014700086CFB301A2014F77552766277727440F00
:10148000551F440F551F47595D4FFA0180829182C5
:10149000A282B382C2CF8F929F92AF92BF92CF921D
:1014A000DF92EF92FF920F931F93CF93DF93FC0194
:1014B00081859285A385B4850196A11DB11D8417F0
:1014C0009507A607B70770F480E0DF91CF911F91D1
:1014D0000F91FF90EF90DF90CF90BF90AF909F90D3
:1014E0008F90089583889488A588B68887898031ED
:1014F00089F5BB27A72F962F852FE9016A017B016C
:101500008F01BC01CD01680D791D8A1D9B1D809046
:10151000000190900101A0900201B0900301861695
:101520009706A806B90601F5F8018789803111F5FB
:10153000DD24EE24FF24F601EE0FFF1FE759FD4FD7
:1015400080819181B0E0A0E088839983AA83BB83E6
:1015500081E0BBCFDB01CA01C7E0B695A79597959F
:101560008795CA95D1F7C9CF40E00E94360881110E
:10157000DBCFAACFE894C7F8DD24EE24FF24F601E0
:10158000EE0FFF1FEE0FFF1FE759FD4F8081918186
:10159000A281B381BF70D8CF4F925F926F927F923A
:1015A000AF92BF92CF92DF92EF92FF920F931F9371
:1015B000CF93DF9300D000D0CDB7DEB78C01498345
:1015C0005A836B837C835901C12CD12C7601412C29
:1015D00082E0582E612C712C49815A816B817C816B
:1015E0009E012F5F3F4FC8010E944B0A882339F1AB
:1015F000F8018585A301920104C0220F331F441F07
:10160000551F8A95D2F7DA01C901C80ED91EEA1E04
:10161000FB1E49815A816B817C818789803111F160
:1016200088EF9FEFAFEFBFE0481759076A077B07C6
:1016300098F2F501C082D182E282F38281E00F90BC
:101640000F900F900F90DF91CF911F910F91FF900E
:10165000EF90DF90CF90BF90AF907F906F905F90B2
:101660004F90089588EF9FEFA0E0B0E0DDCFCF93DB
:10167000DF93FC012581222321F080E0DF91CF91CF
:101680000895EC018091B105803159F582E08583A0
:10169000178A108E118E128E8091B2059091B3052B
:1016A000B0E0A0E025E0880F991FAA1FBB1F2A9574
:1016B000D1F7838B948BA58BB68B8AE995E09C8FB1
:1016C0008B8F81E08C831E821F82188619861A8672
:1016D0001B861C861D861E861F86188A198A1A8AF2
:1016E000CDCF803251F683E085834091B40550918F
:1016F000B5056091B6057091B705478B508F618F26
:10170000728F9F012D5E3F4F8AE995E00E94CC0ABF
:101710008111D3CFB2CF8F929F92AF92BF92CF92CF
:10172000DF92EF92FF920F931F93CF93DF93EC0121
:101730008D8181110EC080E0DF91CF911F910F91BB
:10174000FF90EF90DF90CF90BF90AF909F908F90E1
:1017500008950B891C892D893E89041715072607D2
:10176000370748F34A015B01823031F48A869B8651
:10177000AC86BD8681E0E0CF81149104A104B10460
:1017800049F41E821F82188619861A861B861C86BB
:101790001D86F0CF0A851B852C853D85EB8DFC8D44
:1017A000858590E00996B901A80141505109610968
:1017B0007109082E04C076956795579547950A9448
:1017C000D2F775016401E1E0CE1AD108E108F10811
:1017D00004C0F694E794D794C7948A95D2F7C416B8
:1017E000D506E606F70620F0012B022B032B11F598
:1017F0008F89988DA98DBA8D8E839F83A887B9878D
:101800008E010A5F1F4FC114D104E104F10409F4F1
:10181000ADCF4E815F816885798598018B8D9C8DD8
:101820000E944B0A91E0C91AD108E108F108811120
:10183000EACF81CFC41AD50AE60AF70AE1CF3F9270
:101840004F925F926F927F928F929F92AF92BF92D0
:10185000CF92DF92EF92FF920F931F93CF93DF937C
:10186000CDB7DEB72C970FB6F894DEBF0FBECDBF55
:101870005C01DC015B968D909C905C9716964D9078
:101880005D906D907C90199741145104610471042E
:1018900009F468C0BFEF4B1A5B0A6B0A7B0A312C54
:1018A000F40181859285A385B4859C01AD012F5FEC
:1018B0003F4F4F4F5F4F29873A874B875C877301B4
:1018C00062011D821E821F821886F4018185928525
:1018D000A385B4852D813E814F815885281739070E
:1018E0004A075B0708F056C089859A85AB85BC8599
:1018F0008C159D05AE05BF0550F482E0C82ED12C95
:10190000E12CF12C92E0492E512C612C712C9E017E
:101910002F5F3F4FB701A601C4010E944B0A8823E5
:10192000C9F189819A81AB81BC81892B8A2B8B2B50
:1019300009F1260137019FEF491A590A690A790A04
:101940002D813E814F8158852F5F3F4F4F4F5F4F15
:101950002D833E834F8358873FEFC31AD30AE30A90
:10196000F30AB3CFF4014080518062807380332446
:10197000339496CFC414D504E604F70409F70FEFA7
:101980001FEF2FEF3FE0B701A601C4010E94A90994
:10199000811119C080E02C960FB6F894DEBF0FBEFF
:1019A000CDBFDF91CF911F910F91FF90EF90DF900E
:1019B000CF90BF90AF909F908F907F906F905F90EF
:1019C0004F903F900895D50116964D915D916D9180
:1019D0007C911997411551056105710539F0970101
:1019E0008601C4010E94A9098823A1F2D501169697
:1019F000CD92DD92ED92FC921997332051F0D701F0
:101A0000C6010196A11DB11DF40180839183A283BB
:101A1000B383F5018789908DA18DB28D892B8A2B97
:101A20008B2B39F48481C78AD08EE18EF28E806848
:101A30008483F50184818062848381E0ACCF1F932D
:101A4000CF93DF93FC0125812223D1F1162FEC01E6
:101A5000848187FF2AC0668577858089918941E0E6
:101A60000E943608882361F1EA8980E2E89FF0014C
:101A70001124E759FD4F309719F18D81823040F4E0
:101A80008B899C89AD89BE89848F958FA68FB78FEE
:101A90008F89988D938F828F8F89988DA98DBA8D1C
:101AA000B58BA48B8C818F778C83111103C08C81B3
:101AB0008F7E8C83812FDF91CF911F910C940B0827
:101AC00080E0DF91CF911F910895FF920F931F93B4
:101AD000CF93DF93EC018D81813041F090E080E085
:101AE000DF91CF911F910F91FF9008958C8181FF1D
:101AF000F5CF82FD1BC00091690410916A04C801F2
:101B00000E9464060E944306F82EC8010E94310616
:101B10008FEFF812E3CF8C8185FF1BC060E0CE0110
:101B20000E941F0D8C818F7D8C83D8CF4B895C895F
:101B30006D897E898A859B85AC85BD8584179507CF
:101B4000A607B707C1F2CE010E948B0B8111D3CF3C
:101B5000C5CF409111025091120260911302709111
:101B60001402452B462B472B21F080E00E94E7070B
:101B7000B5CF80618C832A853B85317080E092E00F
:101B8000821B930BADCFCF93DF93EC0161E00E94FA
:101B90001F0D882311F01D8281E0DF91CF91089500
:101BA0002F923F924F925F926F927F928F929F926D
:101BB000AF92BF92CF92DF92EF92FF920F931F935B
:101BC000CF93DF9300D000D01F92CDB7DEB77C015A
:101BD0005B01342E5D83DC0115968C911597813065
:101BE00009F0CEC014962C9021FECAC022FCB4C0CD
:101BF000C32CDD8022947FE027222094B22DB17087
:101C00002B2ED7011A964D915D916D917C911D9768
:101C1000C114D10409F428C15B968D919C915C9705
:101C2000FC0174807A948A019B0169E036952795BE
:101C3000179507956A95D1F770228A011170711076
:101C400020C001151105E9F416964D915D916D9135
:101C50007C911997411551056105710509F099C0ED
:101C600057968D919D910D90BC91A02D0097A10547
:101C7000B10509F0B0C0C7010E941F0C882309F408
:101C80007FC080E092E0801B910B46018C159D0582
:101C900008F44C01D7015B964D915C915C971696C8
:101CA0008D919D910D90BC91A02D0297A109B10934
:101CB000FA01258504C0880F991FAA1FBB1F2A950A
:101CC000D2F74685578560897189840F951FA61FB5
:101CD000B71F9C01AD01270D311D411D511D29016B
:101CE0003A01811432E0930609F07BC08091000133
:101CF00090910101A0910201B09103018415950515
:101D0000A605B70559F48FEF9FEFDC018093000122
:101D100090930101A0930201B0930301022D95015C
:101D2000B301A2018091690490916A040E9479072D
:101D3000882331F19EEFB91AC818D908F7018285B6
:101D40009385A485B585880D991DA11DB11D828738
:101D50009387A487B58755CFF7014389548965894F
:101D6000768982859385A485B585481759076A07C2
:101D70007B0709F43DCFC7010E948B0B811138CF3F
:101D800081E090E0D70113969C938E93129780E0A8
:101D900007C09E012F5F3F4F0E944B0A811102C076
:101DA00090E079C089819A81AB81BC81F701238D54
:101DB000348DF901278948EF5FEF60E070E0203152
:101DC00021F048EF5FEF6FEF7FE084179507A607DC
:101DD000B70708F050CFF70186839783A087B187B4
:101DE00050CF0115110599F5D7011A964D915D91C6
:101DF0006D917C911D9753968D919D910D90BC9105
:101E0000A02D481759076A077B0708F181E00E9457
:101E10000B08882309F4B4CF4092000150920101CD
:101E200060920201709203018091100281608093A0
:101E30001002C80187599D4FD5019C01280D391DFD
:101E4000FC012E173F0759F04D914193FACF41E025
:101E5000C301B2010E9436088111EBCF91CF281B3C
:101E6000390BA20EB31E68CFF70183899489A58927
:101E7000B68984179507A607B70738F48481438B82
:101E8000548B658B768B80688483F701848183FD16
:101E90001AC0832D9D810F900F900F900F900F907F
:101EA000DF91CF911F910F91FF90EF90DF90CF9036
:101EB000BF90AF909F908F907F906F905F904F906A
:101EC0003F902F90089561E0C7010E941F0D882365
:101ED00009F456CFDECFCF93DF931F92CDB7DEB795
:101EE000698341E050E0BE016F5F7F4F0E94D00DDB
:101EF0000F90DF91CF910895FC01DB0112968D9137
:101F00009C9113979383828382E391E091838083F2
:101F100014968C911497848315968C9115978583CC
:101F200016964D915D916D917C91199746835783DB
:101F3000608771871A964D915D916D917C911D9787
:101F400042875387648775871E964D915D916D9189
:101F50007C91519746875787608B718B52968C91F5
:101F60005297828B53964D915D916D917C915697CE
:101F7000438B548B658B768B57964D915D916D910C
:101F80007C915A97478B508F618F728F5B968D91A2
:101F90009C91948F838F0895FC01818D928D009781
:101FA00019F061E00C941F0D0895DC015996ED9134
:101FB000FC913097B9F083899489A589B6894285C7
:101FC000538564857585841B950BA60BB70B81150E
:101FD00020E89207A105B10538F08FEF9FE7A0E058
:101FE000B0E0089590E080E00895DC0159968D916D
:101FF0009C91009739F0DC01ED91FC910480F58112
:10200000E02D099490E080E00895CF93DF93EC01F8
:10201000E98DFA8D309749F481E090E09B838A83C3
:1020200090E080E0DF91CF91089513821282898D34
:102030009A8D0E94D00DE98DFA8D22813381232B58
:1020400059F7F0CFCF93DF931F92CDB7DEB76983F7
:10205000DC01ED91FC910280F381E02D41E050E044
:10206000BE016F5F7F4F09950F90DF91CF9108956B
:102070002F923F924F925F926F927F928F929F9298
:10208000AF92BF92CF92DF92EF92FF920F931F9386
:10209000CF93DF9300D01F92CDB7DEB7FC018581CF
:1020A000811118C08FEF9FEF0F900F900F90DF916D
:1020B000CF911F910F91FF90EF90DF90CF90BF9045
:1020C000AF909F908F907F906F905F904F903F90D8
:1020D0002F900895848180FFE5CF438954896589D5
:1020E000768982859385A485B585312C212C481766
:1020F00059076A077B0719F022242394312C6F01BA
:102100002101CE0101963C01DF011696BB83AA8313
:102110004114510409F4C5C0F60142855385648514
:1021200075854A01F1E09F22D6015B968D919C91C5
:102130005C978A019B01E9E03695279517950795ED
:10214000EA95D1F71596EC91E230E9F5FC01628D44
:10215000738D848D958D600F711F821F931FA12C2D
:1021600022E0B22EA818B9084A145B0408F4520100
:10217000F601248126FD04C0A114F2E0BF0671F42B
:1021800000910001109101012091020130910301A1
:10219000061717072807390709F05EC040E00E94BC
:1021A0003608882309F47ECFC40187599D4FD30197
:1021B0009C012A0D3B1DFC012E173F0709F46CC042
:1021C00041914D93F9CFDC011496BC90BA94B022A2
:1021D0008114910479F4B1100DC0452B462B472B87
:1021E00069F5F6018789908DA18DB28D86839783DD
:1021F000A087B187D6015B96ED91FC915C9716960E
:102200006D917D918D919C91199762507109810911
:102210009109258504C0660F771F881F991F2A958D
:10222000D2F70685178520893189600F711F821FBB
:10223000931F6B0D711D811D911D91CFD6011696B7
:102240004D915D916D917C9119972A813B810E94FE
:102250004B0A8111CFCF26CF730185019401AB01C9
:10226000BC018091690490916A040E94D70688237A
:1022700009F418CF6A0C7B1CF60182859385A4852E
:10228000B5858A0D9B1DA11DB11D82879387A487EB
:10229000B5874A185B083CCF281B390B620E731EAA
:1022A000EBCF2A94232809F0FDCE898190E0FCCE63
:1022B000FC01818D928D009711F00C9438108FEFF6
:1022C0009FEF08950F931F93CF93DF93EC01898DB8
:1022D0009A8D10E000E0009799F00E9438108C0170
:1022E0000F3F100769F0898D9A8DFC014285538557
:1022F0006485758541505109610971090E948B0BF4
:10230000C801DF91CF911F910F910895089590E03A
:1023100080E008951F93CF93DF93DC011496ED9135
:10232000FC91E417F50710F490E01FC0122FEA01AA
:10233000FC0181819281208131E03093BF042093A0
:10234000E1041092C0041092E204DC01ED91FC91D2
:102350000280F381E02D0995C817D90729F7812F4D
:102360000E94900491E08111DFCF892FDF91CF91FE
:102370001F9108952F923F924F925F926F927F929A
:102380008F929F92AF92BF92CF92DF92EF92FF9285
:102390000F931F93CF93DF935C011B016A01F12C14
:1023A000E12CD50114968D919C9186010E191F097F
:1023B0008017910708F48C01F501D0810E949D01DE
:1023C0002B013C018091B904811172C0C02F0132F0
:1023D00008F0C0E2F1E0F093B90421E0C601801BEF
:1023E000910BE816F90608F420E02093B8048FEF6B
:1023F0008093B7041092B6048C0F8093B504A1E0CB
:10240000A093940480919404DD0FD82BD09394046E
:1024100080919304813009F090C0109293040E943F
:102420009D012B013C01809194048093BB0080911D
:10243000BB049091BC04A091BD04B091BE04892B53
:102440008A2B8B2BA1F00E949D012091BB0430911F
:10245000BC044091BD045091BE04641975098609FD
:102460009709261737074807590708F442C0809193
:10247000BC0083FDD8CFB5ECB093BC000E949D0199
:102480002B013C018091B904813009F45AC080913C
:10249000B6048C1710F4C091B604A5E9B4E0E3E7E4
:1024A000F4E080E08C1751F19D9191938F5FFACF0A
:1024B0008091BB049091BC04A091BD04B091BE0476
:1024C000892B8A2B8B2B09F47DCF0E949D012091B3
:1024D000BB043091BC044091BD045091BE0464190A
:1024E000750986099709261737074807590708F01D
:1024F00069CF8091BA040E946F04C0E01092720408
:10250000C0937104C017110609F057C041018E0C29
:102510009F1CE401CE01881999098017910798F54D
:10252000D50111968D919C91DC01ED91FC91028475
:10253000F385E02D09958993EDCFE5EEE093BC009E
:102540009DCF8091BB049091BC04A091BD04B0913B
:10255000BE04892B8A2B8B2B09F494CF0E949D01FA
:102560002091BB043091BC044091BD045091BE0445
:102570006419750986099709261737074807590707
:1025800008F080CFB6CFE00EF11EEC14FD0408F485
:1025900008CF81E0DF91CF911F910F91FF90EF90D5
:1025A000DF90CF90BF90AF909F908F907F906F9073
:1025B0005F904F903F902F90089580E0EBCFCF92A7
:1025C000DF92EF92FF921F93CF93DF93EC0180E2B3
:1025D000689FF0011124E759FD4F9385917161F0D7
:1025E000842F827449F080E0DF91CF911F91FF909A
:1025F000EF90DF90CF900895142F6A8B80910001A7
:1026000090910101A0910201B09103018E879F87F3
:10261000A88BB98BC488D588F12CE12C7601DD24F8
:10262000CC24CF8AD88EE98EFA8E828D938DB0E03D
:10263000A0E0AC01BD014C295D296E297F294F8B9B
:10264000588F698F7A8F83858871B1F4848D958DC9
:10265000A68DB78D8B8B9C8BAD8BBE8B81E08D83D4
:102660001F701C831E821F82188619861A861B867D
:102670001C861D8681E0B8CF803109F0B4CF9E0161
:102680002D5E3F4F8B8D9C8D0E94CC0A882309F4D0
:10269000AACF84E0E4CFCF93DF93EC0160E08E819A
:1026A0000E943E0161E08E810E943E0160E08E81C9
:1026B0000E943E018BE891E00197F1F7DF91CF9105
:1026C0000895CF92DF92EF92FF920F931F93CF93D3
:1026D000DF936C017C0187E0E80EF11CD0E0C0E0E4
:1026E000062F10E0B8010C2E02C0759567950A946C
:1026F000E2F76170F70181917F010E943E0121960E
:10270000C430D10579F7C601DF91CF911F910F91A8
:10271000FF90EF90DF90CF900C944B13CF92DF920D
:10272000EF92FF920F931F93CF93DF93EC01F62E5E
:10273000642F8C810E943E018D818F3F19F060E0F3
:102740000E943E010F2D10E08F8584FF25C06E0191
:1027500087E0C80ED11CF12CE12CB8010E2C02C070
:10276000759567950A94E2F76170F60181916F01A2
:102770000E943E01FFEFEF1AFF0A88E0E816F1041D
:1027800061F7CE01DF91CF911F910F91FF90EF90F4
:10279000DF90CF900C944B13B80184E0759567954A
:1027A0008A95E1F7CE010E9461136F2DCE01DF9172
:1027B000CF911F910F91FF90EF90DF90CF900C94ED
:1027C000611340E0682F85E096E00C948E1381E061
:1027D0000E94E1138BE39FE10197F1F70895CF93F6
:1027E000DF93823029F49091140698609093140638
:1027F000809318061092190680E480931A0680E1EF
:1028000080931B0680E580931C0661E08091090699
:102810000E946C0180910A068F3F19F061E00E94CE
:102820006C0161E080910B060E946C01C5E0D6E06E
:102830009E01255036408091140684FD0BC084E033
:1028400090E021962817390744F461E08E810E94B8
:102850006C01EECF88E090E0F4CF8BE39DE0019730
:10286000F1F760E0809109060E943E0160E08091EE
:102870000B060E943E0180910A068F3F19F060E02E
:102880000E943E018091140684FD34C063E085E01F
:1028900096E00E946113CBE4D6E4CE010197F1F7F4
:1028A00063E085E096E00E9461132197F1F763E011
:1028B00085E096E00E94611383E592E00197F1F7CD
:1028C00062E085E096E00E946113809114068062C8
:1028D0000E94E11384E0809315068CE00E94E113CE
:1028E0000E94E71382E08093160686E0DF91CF9185
:1028F0000C94E11380620E94E1138BE496E401974B
:10290000F1F78091140680620E94E11383E592E062
:102910000197F1F78091140680620E94E113D5CFF0
:1029200090911806891710F08FEF890FE82FF0E0CB
:10293000EB5FF94F848980680C94E11341E00E94B9
:102940008E1381E090E00895FB0101900020E9F7EB
:102950003197AF01461B570BDC01ED91FC910280D2
:10296000F381E02D09948F929F92AF92BF92EF92E4
:10297000FF920F931F93CF93DF93CDB7DEB7A1974D
:102980000FB6F894DEBF0FBECDBF7C01FA01CB01BC
:1029900019A2223008F42AE08E010F5D1F4F822E0B
:1029A000912CB12CA12CBF01A50194010E9472238E
:1029B000F901CA016A300CF5605DD8016E938D0192
:1029C000232B242B252B79F790E080E0109721F022
:1029D000BD01C7010E94A414A1960FB6F894DEBFF2
:1029E0000FBECDBFDF91CF911F910F91FF90EF9060
:1029F000BF90AF909F908F900895695CDECF482F75
:102A000050E070E060E02AE087ED95E00C94B314AC
:102A10002F923F924F925F926F927F928F929F92EE
:102A2000AF92BF92CF92DF92EF92FF921F93CF931C
:102A3000DF93EC016A017B01722EAB019601CB01A1
:102A4000B6010E944D2368E571E0811126C0460160
:102A50005701E894B7F82FEF3FEF4FE75FE7C50165
:102A6000B4010E944D2381110CC02FEF3FEF4FE7BF
:102A70005FE7C501B4010E94FC206CE571E0181607
:102A800064F02FEF3FEF4FE75FE4C701B6010E940C
:102A900048231816B4F460E671E0CE01DF91CF91BF
:102AA0001F91FF90EF90DF90CF90BF90AF909F90DD
:102AB0008F907F906F905F904F903F902F900C94ED
:102AC000A4142FEF3FEF4FE75FECC701B6010E9460
:102AD000FC2087FDE0CF20E030E0A901C701B6016E
:102AE0000E94FC20312C212C87FF0DC0E881F98148
:102AF0000190F081E02D6DE2CE0109951C01F7FAFD
:102B0000F094F7F8F09410E060E070E080E09FE36C
:102B1000711641F020E030E040E251E40E94A7222B
:102B20001F5FF6CFA70196010E943B222B013C01BB
:102B30000E9419234B015C012AE0BC01A401CE01D3
:102B40000E94B3147C01E20CF31C1123E1F1C501D6
:102B5000B4010E9401219B01AC01C301B2010E949A
:102B60003A224B015C01E881F9810190F081E02D6E
:102B70006EE2CE010995E80EF91E115020F120E019
:102B800030E040E251E4C501B4010E9462212B0112
:102B90003C010E9419234B01B12CA12C2AE0B50164
:102BA000A401CE010E94B314E80EF91EC501B401C0
:102BB0000E9401219B01AC01C301B2010E943A2293
:102BC0004B015C01DACFC701DF91CF911F91FF90DC
:102BD000EF90DF90CF90BF90AF909F908F907F90BD
:102BE0006F905F904F903F902F9008950C94A41495
:102BF00085ED8093BC008091BB049091BC04A091B2
:102C0000BD04B091BE040796A11DB11D23E0B69589
:102C1000A795979587952A95D1F72091BC0024FD1B
:102C200003C01092B90408954091BB045091BC04B4
:102C30006091BD047091BE04452B462B472B69F370
:102C40000097A105B10541F02AE22A95F1F700C0ED
:102C50000197A109B109E1CF8091BA040C946F04E6
:102C60003F924F925F926F927F928F929F92AF921C
:102C7000BF92CF92DF92EF92FF920F931F93CF9369
:102C8000DF93CDB7DEB72B970FB6F894DEBF0FBE3C
:102C9000CDBF7C01FE013196CE010C966F0130E272
:102CA0003193E817F907E1F7DA0130E087E09D9109
:102CB000B92E992309F43CC09E32F1F48A30C9F44C
:102CC00080E02B960FB6F894DEBF0FBECDBFDF912C
:102CD000CF911F910F91FF90EF90DF90CF90BF9019
:102CE000AF909F908F907F906F905F904F903F90AC
:102CF000089538E08AE0DBCFE8E6F0E04491442331
:102D000021F031969413FACFDBCF8317C8F24FED41
:102D1000490F4E35A8F64FE9490F4A3118F440EEF5
:102D2000B42EB90EF601E30FF11DB0823F5FBFCFA5
:102D30008981803229F2322E8B01DB015B968D91E5
:102D40009C915C97F701948F838F16961D921D922C
:102D50001D921C921997FB01128613861486158604
:102D6000F80182859385A485B58543895489658951
:102D7000768984179507A607B70708F04DC025E0A8
:102D8000B695A795979587952A95D1F7F82FFF7057
:102D9000AF2ED80115968C91823008F491CFC801DE
:102DA0000E94381097FD8CCFF80182859385A48509
:102DB000B5854F96A11DB11D82879387A487B587DE
:102DC000F0E2AF9EB001112467597D4F6115710586
:102DD00009F476CFDB018C91882341F0853E09F020
:102DE00062C0BB2029F0BB24B394BACFB1100EC08F
:102DF000F701A28A8091000190910101A091020146
:102E0000B091030186879787A08BB18BDB018C91F2
:102E10008111E9CFBB24B394832D8271823109F0F3
:102E20004FCFBB2009F44DC0F701668577858089B7
:102E3000918941E00E943608882309F441CFD701E7
:102E400052968C91B0E28B9FC001112487599D4FFF
:102E5000009709F435CFFC013A9626E1DF011D9277
:102E60002A95E9F72BE0F601DC0101900D922A95F5
:102E7000E1F721E238E2FC01318B208B40E058E0A1
:102E800057874687338B228B318F208F578B468B0A
:102E900081E00E940B08882309F412CF432DD7014B
:102EA00052966C910AC04BE050E0C6010E94BF24CC
:102EB000892B09F055CF432D6A2DC7010E94DF12DF
:102EC00000CFF8018581823009F4FACEC8010E9452
:102ED0001F0C882309F4F4CED8015B96ED91FC9188
:102EE0005C9716968D909D90AD90BC901997B2E02E
:102EF0008B1A9108A108B108858504C0880C991C1B
:102F0000AA1CBB1C8A95D2F786859785A089B189B2
:102F1000880E991EAA1EBB1E848124013501480E0D
:102F2000511C611C711C84149504A604B70409F19A
:102F3000E1E04E1A51086108710881E00E940B0817
:102F4000882309F4BDCEE9E6F2E0119289E694E027
:102F50008E179F07D1F740920001509201016092B5
:102F6000020170920301809110028160809310022F
:102F7000DACFD8015B96ED91FC91258580E092E057
:102F8000A0E0B0E004C0880F991FAA1FBB1F2A95BC
:102F9000D2F7F8014389548965897689840F951F92
:102FA000A61FB71F838B948BA58BB68BD701529628
:102FB0001C9289E692E04FCFEF92FF920F931F93FE
:102FC000CF93DF93EC017B018A011B821A8288EE8A
:102FD00093E0A0E0B0E08C839D83AE83BF838EE35B
:102FE00091E0998388838DE190E00E949A239A8FE3
:102FF000898F009779F02DE1F701DC0101900D92A6
:103000002A95E1F74CE050E0B801CE010C960E9401
:10301000CC24188EDF91CF911F910F91FF90EF90EC
:103020000895EF92FF920F931F93CF93DF93CDB745
:10303000DEB7C755D1090FB6F894DEBF0FBECDBFBE
:103040008C011C821B8282E3E82E81E0F82EFA823A
:10305000E9821E82CE0101960E94370BBE016F5F8E
:103060007F4FCE01CB960E947C0F19A218A2FF8E33
:10307000EE8E1BA221968FAD2197811121C0F80100
:103080001382128288EE93E0A0E0B0E084839583FF
:10309000A683B7838EE391E091838083128E118E95
:1030A0001486C801C95ADF4F0FB6F894DEBF0FBEB1
:1030B000CDBFDF91CF911F910F91FF90EF900895B9
:1030C00027E144E651E0BE01655C7F4FCE014E969C
:1030D0000E943016882399F2CE01CB960E94C30D30
:1030E00049A95AA96BA97CA9CE014E960E948B0BC7
:1030F000BE01625E7F4FCE0101960E947C0F44E6C6
:1031000051E0BE016F5F7F4FC8010E94DC17C9CF3D
:103110001F920F920FB60F9211242F933F938F930C
:103120009F93AF93BF938091610290916202A091AF
:103130006302B09164023091600223E0230F2D37C7
:1031400058F50196A11DB11D209360028093610284
:1031500090936202A0936302B0936402809165022F
:1031600090916602A0916702B09168020196A11D3C
:10317000B11D8093650290936602A0936702B0939D
:103180006802BF91AF919F918F913F912F910F90C6
:103190000FBE0F901F90189526E8230F0296A11DD1
:1031A000B11DD2CF1F920F920FB60F9211242F9301
:1031B0003F934F935F936F937F938F939F93AF93BF
:1031C000BF93EF93FF9383EE94E00E948403FF91FB
:1031D000EF91BF91AF919F918F917F916F915F918F
:1031E0004F913F912F910F900FBE0F901F90189508
:1031F0001F920F920FB60F9211242F938F939F93CC
:10320000EF93FF93E091F304F091F4048081E09157
:10321000F904F091FA0482FD1BC090818091FC04B6
:103220008F5F8F732091FD04821741F0E091FC04C1
:10323000F0E0ED51FB4F958F8093FC04FF91EF91EF
:103240009F918F912F910F900FBE0F901F90189507
:103250008081F4CF1F920F920FB60F9211242F93FB
:103260003F934F935F936F937F938F939F93AF930E
:10327000BF93EF93FF938091B900887F803609F464
:103280004AC0F0F5883209F4A7C018F5803109F476
:103290009BC0B8F4882309F4F9C0883009F494C0BD
:1032A000FF91EF91BF91AF919F918F917F916F911E
:1032B0005F914F913F912F910F900FBE0F901F90F4
:1032C0001895883109F488C0803251F78093B7048B
:1032D00014C0803409F49DC040F48033B9F38833BE
:1032E000F9F68093B70485ECB0C0803509F485C049
:1032F000883509F496C0883499F60E94F815D0CF25
:10330000883909F48CC038F5883729F050F48836AC
:1033100011F0803729F683E08093B90410925802A7
:1033200057C0883809F47BC0803919F0803809F01B
:10333000B7CF80915802803208F071C0E0915802F6
:1033400081E08E0F809358028091BB00F0E0E85C32
:10335000FD4F80833DC0803B39F0E0F4803A09F4B2
:1033600079C0883A09F09CCF84E08093B904109228
:10337000370210923602E0916D04F0916E040995C7
:103380008091360281110FC081E080933602109245
:10339000160209C0803C09F4A6CF883C09F4A3CFEB
:1033A000883B09F07DCFE091370281E08E0F80935A
:1033B0003702F0E0EA5EFD4F80818093BB00909180
:1033C00037028091360229C0809194048093BB001B
:1033D00085EC8093BC0064CF9091B6048091B504D5
:1033E000981758F5E091B60481E08E0F8093B604EB
:1033F000F0E0EB56FB4F8081E9CFE091B60481E02D
:103400008E0F8093B6048091BB00F0E0EB56FB4F2B
:1034100080839091B6048091B5049817C8F285E82E
:10342000D8CFE091B60481E08E0F8093B6048091EE
:10343000BB00F0E0EB56FB4F80838091B804811114
:103440005CCF81E08093930484EA8093BC00109267
:10345000B90426CF85EC8093BC001092B90480910A
:103460005802803230F4E0915802F0E0E85CFD4F01
:1034700010826091580270E0E0916B04F0916C044E
:1034800088E392E00995109258020ACF1092B7048F
:1034900034CFFC01908190539A3008F090E0818104
:1034A00080532AE0929F800D11240895CF93DF93DB
:1034B00000D0CDB7DEB78FE08A8321E041E050E055
:1034C000BE016E5F7F4F80916F04909170040E94E7
:1034D0008A1141E050E0BE016F5F7F4F80916F0421
:1034E000909170040E94BA1189810F900F90DF9122
:1034F000CF910895CF92DF92EF92FF92E3EEF4E046
:103500001382128288EEC82E83E0D82EE12CF12C93
:10351000C482D582E682F7828EE091E09183808337
:1035200085EC90E09587848784EC90E09787868788
:1035300080EC90E0918B808B81EC90E0938B828B80
:1035400082EC90E0958B848B86EC90E0978B868B59
:10355000118E128E138E148EE0E8F5E01382128223
:10356000C482D582E682F78280E291E091838083F3
:10357000ECE8F5E080E580831182EEE8F5E0158265
:1035800016821186138682E090E0A0E0B0E0848786
:103590009587A687B78713A215A614A682E391E0A4
:1035A00093A782A717A6E5E0F6E01382128280E5D2
:1035B00091E09183808387E084838FEF858386E029
:1035C000868385E0878384E0808783E0818782E04B
:1035D00082871386148615861686178681E00E94D8
:1035E000EF13A2EFB5E088E015968C9315978BE06A
:1035F00016968C931697E6EEF0E0E4911796EC930E
:103600001797E2EDF0E0E4911896EC93189740E8F4
:103610005EE360E070E01D964D935D936D937C9347
:103620005097E7EDF5E013821282C482D582E682DC
:10363000F7828EE391E091838083128E118E14863F
:10364000FF90EF90DF90CF900895CF93DF93CDB7A9
:10365000DEB76D970FB6F894DEBF0FBECDBF78947E
:1036600084B5826084BD84B5816084BD85B5826087
:1036700085BD85B5816085BD80916E008160809338
:103680006E001092810080918100826080938100A1
:1036900080918100816080938100809180008160B1
:1036A000809380008091B10084608093B10080910C
:1036B000B00081608093B00080917A008460809334
:1036C0007A0080917A00826080937A0080917A00FB
:1036D000816080937A0080917A00806880937A007C
:1036E0001092C10082E00E94EF1362E08091F70522
:1036F0000E946C010E94F401605D7740810991098C
:103700006093FB057093FC058093FD059093FE0587
:1037100087E3809304060E94580461E089E00E94D8
:103720006C0161E08EE00E946C0161E08FE00E941C
:103730006C0161E080E10E946C0161E081E10E9426
:103740006C016DE671E085E096E00E94F61560ED93
:1037500077E080E090E00E94C2010E94E713809130
:10376000BD05882321F088EB95E00E94C30D1092DF
:1037700099051092970510929405109293058AE08E
:10378000809392050E94F4017B0161E08091920593
:103790000E946C0161E0809192050E943E010FB78A
:1037A000F89480915902811127C0E4EDF0E08491F2
:1037B000E8EEF0E09491E82FF0E0EE0FFF1FE856FE
:1037C000FF4FA591B491EC91E92321F461E08AE0E7
:1037D0000E943E0161E08AE00E946C018CB580612C
:1037E0008CBD8CB580648CBD61E08DE00E946C0165
:1037F00061E08BE00E946C01809159028F5F8093A1
:1038000059020FBF82E580938C0510928D0580913F
:103810008C0590918D050E9461060AE08FEF0E9451
:103820003C060150D9F78EE895E00E94640620E03E
:1038300030E0A90160E08EE895E00E947A06D82E7B
:1038400080939805442443948415A9F00E94F401C0
:103850006E197F09613D774050F381E080939305B5
:103860008EE895E00E94310666E871E085E096E01A
:103870000E94F615FFCF2AEA31E040E050E068E010
:103880008EE895E00E947A0682FF2AC0D0929905C0
:1038900080919905812C912C5401823029F4812C3E
:1038A000912CA12C80E4B82E20E030E0A90167E340
:1038B0008EE895E00E947A06A501940169E28EE8FF
:1038C00095E00E947A06809398058823C1F00E94B3
:1038D000F4016E197F09613D774030F388E0BECF77
:1038E00004E00E944306809398050150D1F78A3A7C
:1038F00011F082E0B3CF82E080939905C9CF809127
:1039000099058230D1F420E030E0A9016AE38EE825
:1039100095E00E947A06882311F086E09FCF0E94EE
:103920004306807C803C19F483E0809399050E94D3
:1039300043060E9443060E9443068EE895E00E94DB
:10394000310680E580938C0510928D0581E00E9400
:103950008008882309F478C088EB95E00E94370B33
:10396000882309F481CF6DE771E085E096E00E943D
:10397000F61568EE73E080E090E00E94C2010E94BC
:10398000E71380916F0490917004009709F063C071
:1039900086E090E00E949A237C0188E6F70180830C
:1039A00080E895E092838183138280E290E09583A2
:1039B0008483F0927004E0926F040E94580481E0C6
:1039C000F7018383C7010E940606882309F446C0D5
:1039D0000E94561A90E0880F892F881F990B892B17
:1039E00009F40BC162EA71E085E096E00E94F615E9
:1039F0004BE050E06CE870E0CE0101960E94F320AD
:103A0000CE010A960E94491A082FE981E154E33158
:103A100008F034C00E2E000CFF0BEF5EF24E0C943B
:103A20009423861D3E1D3E1D9A1D3E1D9C1D3E1D60
:103A30003E1D3E1D351D3E1D3E1D8D1D981D961DB6
:103A40003E1D3E1D3E1D941D80E00E94800888237F
:103A500009F40ACF81CF0E9436249ACF66E971E03B
:103A600085E096E00E94F615FFCF8A8111E081364D
:103A700029F08B8116E08E3609F017E0CE0105960D
:103A80000E94491AF82E48E050E063E870E0CE0149
:103A900001960E94F320CE0101960E94491AE82E59
:103AA000CE0104960E94491AC82ECE0107960E94A4
:103AB000491A382F1A8219822AE0622F0E94522353
:103AC000982F880F890F880F830F8A838C2D0E946F
:103AD0005223982F880F890F880F8C0D8B838E2D82
:103AE0000E945223982F880F890F880F8E0D8C8388
:103AF000602F70E02F2D30E0E8E7F0E0D116F0F411
:103B00008491280F311DD3943196F8CF8B8114E026
:103B1000823709F4B3CF18E0B1CF8B8113E082373D
:103B200009F4ACCF15E0AACF19E0A8CF1AE0A6CFD0
:103B30001BE0A4CF1CE0A2CF12E0A0CF133028F0EE
:103B4000802F837011F42F5F3F4FCB010396969522
:103B5000879596958795EDE6F1E06E9FA0016F9FA2
:103B6000500D7E9F500D11244B5F5F4F840F951FAA
:103B7000820F931F67E070E00E945E23811101C0F5
:103B800087E08D832AE08F2D622F0E945223982F89
:103B9000880F890F880F8F0D8E83812F0E945223EB
:103BA000982F990F890F880F180F1F83802F0E945D
:103BB0005223982F880F890F880F800F888721E064
:103BC00048E050E0BE016F5F7F4F80916F0490919D
:103BD00070040E948A110E94561A9FE09C8F8F7772
:103BE0008D8F21E042E050E0BE01645E7F4F809106
:103BF0006F04909170040E948A11CE0101960E9478
:103C00001118CE0101960E94A400E091F005F091F8
:103C1000F105309709F185818823F1F060EB71E0BF
:103C200087ED95E00E94A4146EEC71E087ED95E0BD
:103C30000E94A4148091F0059091F105009761F025
:103C40000E94C30D8091F0059091F1050E943624E9
:103C50001092F1051092F005A0E02A2EA0E03A2E75
:103C60000E940002882349F08091F8058B3028F0EB
:103C70008D3050F085518230C8F1812C912CF0ECC0
:103C8000AF2EFFE7BF2E1EC06091F30570E090E0FD
:103C900080E00E9403212DEC3CEC4CEC5DE30E94A3
:103CA00062216B017C016091F20570E090E080E0A0
:103CB0000E9403219B01AC01C701B6010E943B2277
:103CC0004B015C010E940002882309F474C08091BA
:103CD000F8058C3009F484C0D8F48B3091F1C12CF4
:103CE000D12C70ECE72E7FE7F72E55C06091F205DE
:103CF0007091F30576276727762790E080E00E9491
:103D000001212DEC3CEC4CEC5DE30E946221D8CF0C
:103D10008551823020F71091F405612F70E0762FE5
:103D2000662766277F778091F505682B90E080E015
:103D30000E9401212DEC3CEC4CEC5DE30E946221E1
:103D40006BC06091F40570E090E080E00E9401217A
:103D50006B017C011091F50517FF0AC0AC019B01B6
:103D600060E070E080E89FEB0E943A226B017C01EA
:103D70001F70612F70E090E080E00E9403212DEC25
:103D80003CEC4CEC5DE30E946221A70196010E948D
:103D90003B226B017C01A5019401C501B4010E9485
:103DA0004D23811108C0A7019601C701B6010E94E9
:103DB0004D238823D1F180E00E94901461ED71E0E1
:103DC00085E096E00E94F6152114310409F448CFED
:103DD0000E947003882309F443CF0E94000040CF63
:103DE0001091F405612F70E090E080E00E940121C5
:103DF0006B017C016091F5056F7070E090E080E0F0
:103E00000E9403212DEC3CEC4CEC5DE30E9462210E
:103E1000A70196010E943B226B017C0117FFBBCFDB
:103E2000F7FAF094F7F8F094B6CF80E00E9490147F
:103E300062EE71E085E096E00E94F61521E0B701A0
:103E4000A60185E096E00E94081568EE71E085E025
:103E500096E00E94F61581E00E9490146DEE71E0EC
:103E600085E096E00E94F61521E0B501A40185E009
:103E700096E00E94081563EF71E085E096E00E94ED
:103E8000F61510925F0260E089E00E943E0160E05A
:103E90008EE00E943E0160E08FE00E943E0160E003
:103EA00080E10E943E0120E030E040EF51E4C70194
:103EB000B6010E94482361E018160CF060C189E049
:103EC0000E943E0181E080935F0220E030E040EFFD
:103ED00051E4C501B4010E94FC2087FF54C161E098
:103EE0008FE00E943E0181E080935F020E94F40116
:103EF00020915F02222309F462C100915B021091BC
:103F00005C0220915D0230915E022B013C01401A5F
:103F1000510A620A730A93018201043F114021058C
:103F2000310588F060935B0270935C0280935D02C0
:103F300090935E0260915A0281E0682760935A0272
:103F400081E10E943E01198200916F04109170047A
:103F500020E041E050E0BE016F5F7F4FC8010E944A
:103F60008A11882341F047E050E0BE016F5F7F4F28
:103F7000C8010E94BA1119817A806B805D800E8120
:103F80004F80CE0101960E941118CE0101960E9429
:103F9000A400E091F005F091F105309709F419C102
:103FA0008581882309F415C11F770F77442D50E0D0
:103FB00094E0559547959A95E1F7842F880F880FDF
:103FC000481B440F440E442D50E04053584F70E0BE
:103FD00060E02AE087ED95E00E94B31468EF71E09D
:103FE00087ED95E00E94F615802F90E024E09595EE
:103FF00087952A95E1F7982F990F990F891B880FBC
:10400000800F0E94FF1468EF71E087ED95E00E9439
:10401000F615852D90E034E0959587953A95E1F772
:10402000982F990F990F891B880F850D0E94FF14F7
:104030006AEF71E087ED95E00E94F615862D90E01D
:1040400044E0959587954A95E1F7982F990F990F38
:10405000891B880F860D0E94FF1466EE71E087EDC4
:1040600095E00E94F615872D90E054E09595879590
:104070005A95E1F7982F990F990F891B880F870D93
:104080000E94FF1466EE71E087ED95E00E94F61540
:10409000812F90E064E0959587956A95E1F7982FD8
:1040A000990F990F891B880F810F0E94FF146AEFE7
:1040B00071E087ED95E00E94F61521E0B701A601B9
:1040C00087ED95E00E9408156AEF71E087ED95E0B5
:1040D0000E94F61521E0B501A40187ED95E00E944C
:1040E00008156EEC71E087ED95E00E94A4148091B4
:1040F000F0059091F105009761F00E94C30D809149
:10410000F0059091F1050E9436241092F10510926D
:10411000F005EAEBF0E08491ECEEF0E01491E8EDCC
:10412000F0E00491002309F451C081110E941501AF
:10413000E02FF0E0EE0FFF1FE054FF4FA591B49188
:104140008C91182391E080E009F490E0092F182F5A
:10415000B801F1E06F278EE00E943E016CE271E051
:1041600080E090E00E94C201602F8EE00E943E013C
:1041700060EC74ED81E090E00E94C20125CE8EE0FB
:104180000E943E01A2CE20E030E04CE852E4C5019E
:10419000B4010E94482318166CF40E94F40124EF25
:1041A00031E040E050E00E94722361E020FD60E0D9
:1041B00080E197CE61E080E10E943E0197CE60E011
:1041C00081E10E943E0110925A02BDCE10E000E053
:1041D000BFCF80E00E9490146CEF71E085E096E024
:1041E0000E94F615C5CFFB01DC0102C005900D92BF
:1041F00041505040D8F708950E943E2108F481E0D4
:104200000895E89409C097FB3EF4909580957095C9
:1042100061957F4F8F4F9F4F9923A9F0F92F96E912
:10422000BB279395F695879577956795B795F11187
:10423000F8CFFAF4BB0F11F460FF1BC06F5F7F4F24
:104240008F4F9F4F16C0882311F096E911C0772336
:1042500021F09EE8872F762F05C0662371F096E83F
:10426000862F70E060E02AF09A95660F771F881F0E
:10427000DAF7880F9695879597F90895990F0008B2
:10428000550FAA0BE0E8FEEF16161706E807F90728
:10429000C0F012161306E407F50798F0621B730BC3
:1042A000840B950B39F40A2661F0232B242B252B44
:1042B00021F408950A2609F4A140A6958FEF811DE7
:1042C000811D08950E9475210C94E6210E94D82139
:1042D00038F00E94DF2120F0952311F00C94CF21BB
:1042E0000C94D52111240C941A220E94F72170F30A
:1042F000959FC1F3950F50E0551F629FF001729F8B
:10430000BB27F00DB11D639FAA27F00DB11DAA1F99
:10431000649F6627B00DA11D661F829F2227B00DE6
:10432000A11D621F739FB00DA11D621F839FA00D71
:10433000611D221F749F3327A00D611D231F849FC1
:10434000600D211D822F762F6A2F11249F57504018
:104350009AF0F1F088234AF0EE0FFF1FBB1F661F93
:10436000771F881F91505040A9F79E3F510580F05C
:104370000C94CF210C941A225F3FE4F3983ED4F3BF
:10438000869577956795B795F795E7959F5FC1F700
:10439000FE2B880F911D9695879597F9089597F9AB
:1043A0009F6780E870E060E008959FEF80EC0895DB
:1043B00000240A9416161706180609060895002404
:1043C0000A9412161306140605060895092E03947E
:1043D000000C11F4882352F0BB0F40F4BF2B11F4F2
:1043E00060FF04C06F5F7F4F8F4F9F4F089557FD51
:1043F0009058440F551F59F05F3F71F04795880F53
:1044000097FB991F61F09F3F79F0879508951216E9
:1044100013061406551FF2CF4695F1DF08C0161695
:1044200017061806991FF1CF869571056105089446
:104430000895E894BB2766277727CB0197F908955D
:104440000E942B22A59F900DB49F900DA49F800DDC
:10445000911D11240895A29FB001B39FC001A39F95
:10446000700D811D1124911DB29F700D811D1124AD
:10447000911D08955058BB27AA270E9452220C94E0
:10448000E6210E94D82138F00E94DF2120F039F483
:104490009F3F19F426F40C94D5210EF4E095E7FB28
:1044A0000C94CF21E92F0E94F72158F3BA17620725
:1044B00073078407950720F079F4A6F50C94192268
:1044C0000EF4E0950B2EBA2FA02D0B01B90190012F
:1044D0000C01CA01A0011124FF27591B99F0593F73
:1044E00050F4503E68F11A16F040A22F232F342FBB
:1044F0004427585FF3CF469537952795A795F04009
:104500005395C9F77EF41F16BA0B620B730B840B1D
:10451000BAF09150A1F0FF0FBB1F661F771F881FD5
:10452000C2F70EC0BA0F621F731F841F48F487952D
:1045300077956795B795F7959E3F08F0B0CF93951F
:10454000880F08F09927EE0F9795879508950E9498
:10455000BB220C94E6210E94DF2158F00E94D82152
:1045600040F029F45F3F29F00C94CF2151110C94B5
:104570001A220C94D5210E94F72168F39923B1F3F4
:10458000552391F3951B550BBB27AA276217730779
:10459000840738F09F5F5F4F220F331F441FAA1F0D
:1045A000A9F335D00E2E3AF0E0E832D091505040C9
:1045B000E695001CCAF72BD0FE2F29D0660F771F77
:1045C000881FBB1F261737074807AB07B0E809F05D
:1045D000BB0B802DBF01FF2793585F4F3AF09E3FE2
:1045E000510578F00C94CF210C941A225F3FE4F32C
:1045F000983ED4F3869577956795B795F7959F5F25
:10460000C9F7880F911D9695879597F90895E1E070
:10461000660F771F881FBB1F621773078407BA07CF
:1046200020F0621B730B840BBA0BEE1F88F7E0952A
:1046300008950E94FF2188F09F5798F0B92F99277D
:10464000B751B0F0E1F0660F771F881F991F1AF07D
:10465000BA95C9F714C0B13091F00E941922B1E0A7
:1046600008950C941922672F782F8827B85F39F0A6
:10467000B93FCCF3869577956795B395D9F73EF416
:1046800090958095709561957F4F8F4F9F4F0895BE
:104690000E943E2108F48FEF08950E943E21880B6E
:1046A000990B0895991B79E004C0991F961708F09B
:1046B000961B881F7A95C9F780950895AA1BBB1B86
:1046C00051E107C0AA1FBB1FA617B70710F0A61B12
:1046D000B70B881F991F5A95A9F780959095BC0133
:1046E000CD010895A1E21A2EAA1BBB1BFD010DC02E
:1046F000AA1FBB1FEE1FFF1FA217B307E407F50792
:1047000020F0A21BB30BE40BF50B661F771F881F6D
:10471000991F1A9469F760957095809590959B0103
:10472000AC01BD01CF010895EE0FFF1F0590F4917C
:10473000E02D09940F931F93CF93DF93823091055F
:1047400010F482E090E0E0911F06F091200630E046
:1047500020E0B0E0A0E0309799F42115310509F48C
:104760004AC0281B390B24303105D8F58A819B813A
:104770006115710589F1FB0193838283FE0111C0EC
:10478000408151810281138148175907E0F0481791
:10479000590799F4109761F012960C93129713969B
:1047A0001C933296CF01DF91CF911F910F91089505
:1047B00000931F0610932006F4CF2115310551F008
:1047C0004217530738F0A901DB019A01BD01DF014F
:1047D000F801C1CFEF01F9CF9093200680931F0617
:1047E000CDCFFE01E20FF31F819391932250310947
:1047F00039832883D7CF20911D0630911E06232BA5
:1048000041F4209106013091070130931E06209358
:104810001D0620910401309105012115310541F457
:104820002DB73EB74091080150910901241B350B6B
:10483000E0911D06F0911E06E217F307A0F42E1B6F
:104840003F0B2817390778F0AC014E5F5F4F2417F4
:10485000350748F04E0F5F1F50931E0640931D060C
:10486000819391939FCFF0E0E0E09CCFCF93DF93D3
:104870000097E9F0FC01329713821282A0911F0683
:10488000B0912006ED0130E020E01097A1F42081E6
:104890003181820F931F20911D0630911E0628172B
:1048A000390709F061C0F0931E06E0931D06DF9101
:1048B000CF910895EA01CE17DF07E8F54A815B81C1
:1048C0009E0141155105B1F7E901FB83EA83499146
:1048D0005991C40FD51FEC17FD0761F480819181B8
:1048E0000296840F951FE9019983888382819381C1
:1048F0009B838A83F0E0E0E012968D919C91139760
:104900000097B9F52D913C911197CD010296820F38
:10491000931F20911D0630911E062817390739F67E
:10492000309751F51092200610921F06B0931E0684
:10493000A0931D06BCCFD383C28340815181840FD5
:10494000951FC817D90761F44E5F5F4F8881998121
:10495000480F591F518340838A819B8193838283AF
:104960002115310509F0B0CFF0932006E0931F0622
:104970009ECFFD01DC01C0CF13821282D7CFFB0195
:10498000DC0104C08D910190801921F44150504008
:10499000C8F7881B990B0895FB01DC01415050407A
:1049A00048F001900D920020C9F701C01D924150BE
:0A49B0005040E0F70895F894FFCF9F
:1049BA00FFFFFFFF00002106800000000000A603A1
:1049CA0006033303F30364034203560300000000A3
:1049DA00D705AA0587118005A30590058105000062
:1049EA0000006B0F0603650D8611000000002210FF
:1049FA000510F50FCC0FD50F5811621100000000F9
:104A0A009E140603871186116E616E00696E660038
:104A1A006F766600646174612E74787400576561FC
:104A2A00746865722053746174696F6E0053442010
:104A3A00526561647900534420696E697420666125
:104A4A00696C65642100525443206661696C65642F
:104A5A00210052544320526573657474696E67006D
:104A6A00446174652C54696D652C54656D702843D6
:104A7A00292C48756D6964697479282529000D0AFD
:104A8A000053656E736F72204572726F7221202017
:104A9A00200054656D703A00432020200048756D4F
:104AAA003A200025202020002D002C0053442057B6
:0E4ABA0072697465204572726F7220200000D0
:00000001FF
