:100000000C945C000C9479000C9479000C947900A9
:100010000C9479000C9479000C9479000C9479007C
:100020000C9479000C9479000C9479000C9479006C
:100030000C9479000C9479000C9479000C9479005C
:100040000C94A0000C9479000C9479000C94790025
:100050000C9479000C9479000C9479000C9479003C
:100060000C9479000C947900000000002400270013
:100070002A0000000000250028002B0004040404CE
:100080000404040402020202020203030303030342
:10009000010204081020408001020408102001021F
:1000A00004081020000000080002010000030407FB
:1000B000000000000000000011241FBECFEFD8E0B8
:1000C000DEBFCDBF11E0A0E0B1E0E4EEF3E002C09E
:1000D00005900D92AA39B107D9F721E0AAE9B1E05C
:1000E00001C01D92A33AB207E1F70E94EA000C9406
:1000F000F0010C9400003FB7F89480919F0190911B
:10010000A001A091A101B091A20126B5A89B05C0B4
:100110002F3F19F00196A11DB11D3FBFBA2FA92F86
:10012000982F8827BC01CD01620F711D811D911D83
:1001300042E0660F771F881F991F4A95D1F70895EF
:100140001F920F920FB60F9211242F933F938F930C
:100150009F93AF93BF9380919B0190919C01A0913D
:100160009D01B0919E0130919A0123E0230F2D371C
:1001700058F50196A11DB11D20939A0180939B0112
:1001800090939C01A0939D01B0939E0180919F014B
:100190009091A001A091A101B091A2010196A11D91
:1001A000B11D80939F019093A001A093A101B093F2
:1001B000A201BF91AF919F918F913F912F910F908D
:1001C0000FBE0F901F90189526E8230F0296A11DD1
:1001D000B11DD2CF789484B5826084BD84B581602E
:1001E00084BD85B5826085BD85B5816085BD809102
:1001F0006E00816080936E0010928100809181007A
:100200008260809381008091810081608093810071
:10021000809180008160809380008091B100846033
:100220008093B1008091B00081608093B000809194
:100230007A00846080937A0080917A008260809353
:100240007A0080917A00816080937A0080917A00B0
:10025000806880937A001092C1002EE031E0A0E027
:10026000B1E08D919D919927FC01E057FF4F44919A
:1002700084589F4FFC018491882399F090E0880F67
:10028000991FFC01E859FF4FC591D491FC01EE582C
:10029000FF4F859194918FB7F894E881E42BE88320
:1002A0008FBF2A173B07E9F650E0852E50E0952EC8
:1002B000CEE0D1E040E0A42E41E0B42E10E000E01A
:1002C000F501819191915F019927FC01EC55FF4F58
:1002D0003491FC01E057FF4F2491FC01E458FF4F9B
:1002E000E491EE2309F1DE01A00FB11F9C913323AD
:1002F00059F0333009F45BC008F04EC0313009F4D6
:100300005CC0323009F45DC0F0E0EE0FFF1FEE5824
:10031000FF4FA591B4918FB7F894EC9191115EC005
:1003200020952E232C938FBF0E947B002B013C0134
:1003300088EEC82E83E0D82EE12CF12C0E947B00A1
:100340006419750986099709683E7340810591050E
:10035000A8F3F1E0CF1AD108E108F10828EE420E27
:1003600023E0521E611C711CC114D104E104F1048C
:1003700029F70E5F1F4F0E30110509F0A1CF2E9601
:10038000F1E0CA39DF0709F095CF8114910409F42F
:100390008FCF0E9400008CCF3730B1F03830D1F0D1
:1003A000343009F0B1CF809180008F7D03C08091FF
:1003B00080008F7780938000A7CF84B58F7784BD2E
:1003C000A3CF84B58F7DFBCF8091B0008F778093D2
:1003D000B0009ACF8091B0008F7DF9CF2E2BA2CFA5
:0403E000F894FFCFBF
:1003E40002000300040005000600070008000100E5
:1003F40001000100010001000100000000000100F3
:1004040001000000000000000000010001000000E5
:1004140001000100000001000100010001000100D1
:1004240000000000010000000100010000000000C5
:1004340001000100010000000100010000000100B2
:1004440001000100000001000100010001000100A1
:100454000100010001000000000000000000010094
:100464000100010001000100010001000100010080
:0A047400010001000000010001007A
:00000001FF
